:100000000C9462000C948A000C948A000C948A0070
:100010000C948A000C948A000C948A000C948A0038
:100020000C948A000C948A000C948A000C948A0028
:100030000C948A000C948A000C948A000C948A0018
:100040000C943C040C948A000C94AC040C9486042C
:100050000C948A000C948A000C948A000C948A00F8
:100060000C948A000C948A000000000024002700F1
:100070002A0000000000250028002B0000000000DE
:1000800023002600290004040404040404040202DA
:100090000202020203030303030301020408102007
:1000A0004080010204081020010204081020000012
:1000B0000008000201000003040700000000000027
:1000C0000000960711241FBECFEFD8E0DEBFCDBFE2
:1000D00013E0A0E0B1E0EAEDFFE002C005900D9270
:1000E000A231B107D9F723E0A2E1B3E001C01D922C
:1000F000AE3BB207E1F710E0C2E6D0E004C02197C2
:10010000FE010E94E507C136D107C9F70E94DE044F
:100110000C94EB070C940000833081F028F48130BC
:1001200099F08230A9F008958730A9F08830C9F09D
:100130008430B1F4809180008F7D03C08091800075
:100140008F7780938000089584B58F7784BD08955C
:1001500084B58F7DFBCF8091B0008F778093B00006
:1001600008958091B0008F7DF9CFCF93DF93282F32
:1001700030E0F901E255FF4F8491F901E656FF4F57
:10018000D491F901EA57FF4FC491CC23A1F081111A
:100190000E948C00EC2FF0E0EE0FFF1FE458FF4FA1
:1001A000A591B491EC91ED2381E090E009F480E019
:1001B000DF91CF91089580E090E0FACF1F93CF9325
:1001C000DF93282F30E0F901E255FF4F8491F901C8
:1001D000E656FF4FD491F901EA57FF4FC491CC2363
:1001E000A9F0162F81110E948C00EC2FF0E0EE0F89
:1001F000FF1FEE58FF4FA591B4918FB7F894EC9183
:10020000111108C0D095DE23DC938FBFDF91CF9111
:100210001F910895DE2BF8CFCF93DF9390E0FC0180
:10022000E656FF4F24918A579F4FFC018491882303
:10023000D1F090E0880F991FFC01E859FF4FA5917C
:10024000B491FC01EE58FF4FC591D491623071F426
:100250009FB7F8943C91822F809583238C93E881FB
:100260002E2B28839FBFDF91CF9108958FB7F894ED
:10027000EC912E2B2C938FBFF6CF1F93CF93DF9350
:10028000182FEB0161E00E940C01209739F460E027
:10029000812FDF91CF911F910C94DE00E12FF0E0D0
:1002A000E255FF4FE491E33039F148F4E130B9F021
:1002B000E230E9F0C038D10554F361E0E9CFE7302E
:1002C00029F1E83059F1E430A9F78091800080628B
:1002D00080938000D0938B00C0938A0004C084B5C3
:1002E000806884BDC7BDDF91CF911F91089584B50B
:1002F000806284BDC8BDF7CF809180008068809304
:100300008000D0938900C0938800EDCF8091B00029
:1003100080688093B000C093B300E5CF8091B000B7
:1003200080628093B000C093B400DDCF3FB7F894F3
:1003300080911D0390911E03A0911F03B091200393
:1003400026B5A89B05C02F3F19F00196A11DB11D30
:100350003FBFBA2FA92F982F8827BC01CD01620F6C
:10036000711D811D911D42E0660F771F881F991F27
:100370004A95D1F708958F929F92AF92BF92CF92F4
:10038000DF92EF92FF926B017C010E9496014B017C
:100390005C01C114D104E104F104B9F00E9496019A
:1003A000681979098A099B09683E7340810591059E
:1003B00080F321E0C21AD108E108F10888EE880E26
:1003C00083E0981EA11CB11CE4CFFF90EF90DF905A
:1003D000CF90BF90AF909F908F900895AF92BF92B3
:1003E000CF92DF92EF92FF920F931F93CF93DF9301
:1003F0006C017B018B01040F151FEB015E01AE1830
:10040000BF08C017D10759F06991D601ED91FC9151
:100410000190F081E02DC6010995892B79F7C5017E
:10042000DF91CF911F910F91FF90EF90DF90CF90D0
:10043000BF90AF900895FC01538D448D252F30E07F
:10044000842F90E0821B930B541710F0CF960895E1
:1004500001970895FC01918D828D981761F0A28D0E
:10046000AE0FBF2FB11D5D968C91928D9F5F9F73D4
:10047000928F90E008958FEF9FEF0895FC01918D8A
:10048000828D981731F0828DE80FF11D858D90E0F7
:1004900008958FEF9FEF0895FC01918D228D892F94
:1004A00090E0805C9F4F821B91098F73992708957C
:1004B00081E293E00E944C0221E0892B09F420E0C4
:1004C000822F089580E090E0892B29F00E94580245
:1004D00081110C9400000895FC01A48DA80FB92F80
:1004E000B11DA35ABF4F2C91848D90E001968F735C
:1004F0009927848FA689B7892C93A089B1898C917B
:10050000837080648C93938D848D981306C00288C9
:10051000F389E02D80818F7D80830895EF92FF9293
:100520000F931F93CF93DF93EC0181E0888F9B8D16
:100530008C8D98131AC0E889F989808185FF15C0D0
:100540009FB7F894EE89FF896083E889F9898081F3
:100550008370806480839FBF81E090E0DF91CF91C2
:100560001F910F91FF90EF900895F62E0B8D10E0E4
:100570000F5F1F4F0F731127E02E8C8D8E110CC053
:100580000FB607FCFACFE889F989808185FFF5CF9E
:10059000CE010E946C02F1CFEB8DEC0FFD2FF11D0F
:1005A000E35AFF4FF0829FB7F8940B8FEA89FB89DB
:1005B00080818062CFCFCF93DF93EC01888D882339
:1005C000B9F0AA89BB89E889F9898C9185FD03C0B6
:1005D000808186FD0DC00FB607FCF7CF8C9185FF9B
:1005E000F2CF808185FFEDCFCE010E946C02E9CF72
:1005F000DF91CF910895CF93C82F2FB7F8946091D2
:10060000190370911A0380911B0390911C032FBF53
:1006100024EF31E040E050E00E94C30780911403D2
:1006200090911503821793079CF48C2F3093150338
:10063000209314032091120330911303232B51F0C4
:100640006AEF70E00E943D011092130310921203B2
:10065000CF91089570E060E00E943D0181E090E05C
:100660009093130380931203F3CFFC0101900020B9
:10067000E9F73197AF01481B590BBC0181E293E0C8
:100680000C94EE018F929F92AF92BF920F931F93A3
:10069000CF93DF93CDB7DEB7A1970FB6F894DEBF47
:1006A0000FBECDBF19A2423008F44AE08E010F5DA3
:1006B0001F4F842E912CB12CA12CA50194010E94D6
:1006C000C307E62FB901CA01EA30F4F4E05DD801AE
:1006D000EE938D01232B242B252B79F790E080E0DE
:1006E000109719F0CD010E943503A1960FB6F8942A
:1006F000DEBF0FBECDBFDF91CF911F910F91BF9095
:10070000AF909F908F900895E95CE1CFCF92DF92F8
:10071000EF92FF92CF93DF936B017C016DE281E258
:1007200093E00E948E02EC0166277727CB016C19BB
:100730007D098E099F094AE00E9442038C0F9D1F8C
:10074000DF91CF91FF90EF90DF90CF900895CF93FE
:10075000DF930E943503EC0182E191E00E943503B2
:100760008C0F9D1FDF91CF910895CF93DF93EC0104
:1007700085E191E00E94A703BE0189E00E943D014E
:10078000BE0186E00E943D01BE0185E00E943D0160
:10079000BE0183E0DF91CF910C943D01CF93DF93B5
:1007A000BC01990F880B990B4AE00E944203EC01AF
:1007B00082E191E00E9435038C0F9D1FDF91CF9164
:1007C0000895BC01990F880B990B4AE00C944203E1
:1007D0000F931F93CF93DF938C01EB0182E391E0A2
:1007E0000E943503C8010E94E1038FE491E00E945A
:1007F0003503CE010E94CE030C30110559F461E09F
:10080000219709F060E08CE0DF91CF911F910F916B
:100810000C94DE006AEF70E0219711F070E060E068
:100820008DE0DF91CF911F910F910C943D0188E5F0
:1008300091E00E94A70370E060E08CE090E00E94ED
:10084000E80370E060E08DE090E00E94E8036CED6A
:1008500075E080E090E00E94BB0170E060E085E020
:100860000E943D0170E060E083E00E943D0170E085
:1008700060E086E00C943D011F920F920FB60F923C
:1008800011242F933F938F939F93AF93BF938091A6
:10089000190390911A03A0911B03B0911C0330918E
:1008A000180323E0230F2D3758F50196A11DB11D24
:1008B000209318038093190390931A03A0931B03AA
:1008C000B0931C0380911D0390911E03A0911F0300
:1008D000B09120030196A11DB11D80931D0390933B
:1008E0001E03A0931F03B0932003BF91AF919F916C
:1008F0008F913F912F910F900FBE0F901F901895E1
:1009000026E8230F0296A11DB11DD2CF1F920F9290
:100910000FB60F9211242F933F934F935F936F93D2
:100920007F938F939F93AF93BF93EF93FF9381E256
:1009300093E00E946C02FF91EF91BF91AF919F9164
:100940008F917F916F915F914F913F912F910F9078
:100950000FBE0F901F9018951F920F920FB60F9217
:1009600011242F938F939F93EF93FF93E091310383
:10097000F09132038081E0913703F091380382FDDA
:100980001BC0908180913A038F5F8F7320913B034E
:10099000821741F0E0913A03F0E0EF5DFC4F958F54
:1009A00080933A03FF91EF919F918F912F910F9038
:1009B0000FBE0F901F9018958081F4CF789484B566
:1009C000826084BD84B5816084BD85B5826085BD4B
:1009D00085B5816085BD80916E00816080936E00D9
:1009E00010928100809181008260809381008091CB
:1009F000810081608093810080918000816080937C
:100A000080008091B10084608093B1008091B0003B
:100A100081608093B00080917A00846080937A0036
:100A200080917A00826080937A0080917A00816060
:100A300080937A0080917A00806880937A00109287
:100A4000C100E0913103F091320382E08083E091B4
:100A50002D03F0912E031082E0912F03F0913003CB
:100A60008FEC808310923903E0913503F0913603C7
:100A700086E08083E0913303F091340380818061CC
:100A80008083E0913303F091340380818860808318
:100A9000E0913303F0913403808180688083E0919A
:100AA0003303F091340380818F7D80838FE691E062
:100AB0000E94A7038FE791E00E94A70361E086E010
:100AC0000E940C0161E085E00E940C0161E083E07E
:100AD0000E940C0161E089E00E940C0162E087E065
:100AE0000E940C0162E084E00E940C0162E082E05E
:100AF0000E940C0162E088E00E940C0161E08CE041
:100B00000E940C0161E08DE00E940C0170E060E049
:100B10008CE090E00E94E80370E060E08DE090E0FF
:100B20000E94E8038CE991E00E94A7038AEF90E01D
:100B30000E94B50364EF71E080E090E00E94BB0189
:100B400090E080E00E94B50364EF71E080E090E007
:100B50000E94BB0184E690E09093170380931603F4
:100B600085EB91E00E94A70394EF492E55245394FE
:100B7000612C712CC4E6D0E024EF822E992493944A
:100B800008EC10E038E5E32E32E0F32E4CE2C42E00
:100B9000DD24D39480E0A82E80E0B82E8091160347
:100BA000909117038C3221E0920709F430C18CF444
:100BB00084369105C9F1883C910509F4CEC0A11491
:100BC000B10461F30E945802882341F30E9400009F
:100BD000E1CF803921E0920709F499C1883592402C
:100BE00071F788E00E94B500892B49F781EE92E009
:100BF0000E94A703D0931703C093160383EF92E0DC
:100C00000E94A70370E060E089E00E943D0170E06F
:100C100060E085E00E943D0170E060E083E00E94BA
:100C20003D0170E060E022C088E00E94B500892BA1
:100C300041F586EC91E00E94A703F0921703E09241
:100C4000160388ED91E00E94A7036AEF70E089E047
:100C50000E943D016AEF70E085E00E943D016AEF6D
:100C600070E083E00E943D0161E070E08CE090E084
:100C70000E94E8036CED75E080E090E00E94BB010B
:100C80009ECF87E00E94B500892B09F098CF88EFAE
:100C900091E00E94A70310931703009316038CE0C2
:100CA00092E00E94350380E491E00E94E10381E339
:100CB00092E00E9435038AEF90E00E94CE036AEF33
:100CC00070E089E00E943D016AEF70E086E00E94DA
:100CD0003D0170E060E08DE090E00E94E80361E09B
:100CE00070E08CE090E00E94E80360E471E080E056
:100CF00090E00E94BB0170E060E08CE090E00E9418
:100D0000E80361E070E08DE090E00E94E8036AEFA4
:100D100070E080E090E00E94BB0170E060E08DE058
:100D200090E00E94E80361E070E08CE090E00E94B7
:100D3000E8032FB7F8946091190370911A0380911A
:100D40001B0390911C032FBFA30192010E94C307B4
:100D5000309315032093140332CF85E090E00E9476
:100D6000FB0284E00E94B500892B09F03FC088E3B4
:100D700092E00E94A703D0921703C09216038BE45F
:100D800092E00E94350382E390E00E94CE036AEF76
:100D900070E085E00E943D0170E060E08CE090E052
:100DA0000E94E80361E070E08DE090E00E94E803BB
:100DB00062E370E080E090E00E94BB0170E060E0E0
:100DC0008DE090E00E94E80361E070E08CE090E04C
:100DD0000E94E80360ED77E080E090E00E94BB01B4
:100DE00070E060E085E00E943D01A3CF87E00E94B3
:100DF000B500892B09F0E3CE80E792E00E94A703BB
:100E0000D0931703C09316030E941704D8CE83E033
:100E100090E00E94FB0282E00E94B500892B09F05D
:100E20006DC084E892E00E94A703D0931703C0939B
:100E3000160386E992E00E94350384E690E00E9462
:100E4000CE036AEF70E083E00E943D0170E060E055
:100E50008CE090E00E94E80361E070E08DE090E0BB
:100E60000E94E80364E670E080E090E00E94BB012D
:100E700070E060E08DE090E00E94E80361E070E0E7
:100E80008CE090E00E94E80364EC79E080E090E080
:100E90000E94BB0170E060E083E00E943D0170E0D1
:100EA00060E08CE090E00E94E80361E070E08DE09B
:100EB00090E00E94E8036AEF70E080E090E00E941A
:100EC000BB0170E060E08DE090E00E94E80361E02B
:100ED00070E08CE090E00E94E80368E873E180E055
:100EE00090E00E94BB0170E060E08CE090E00E9426
:100EF000E80390E080E00E94B50361CE87E00E94A5
:100F0000B500892B09F05BCE8BEB92E077CF87E0C1
:100F10000E94B500892B09F052CE8EEC92E00E941F
:100F2000A703909217038092160349CEE1E2F3E003
:100F30001382128288EE93E0A0E0B0E08483958370
:100F4000A683B78384E091E09183808385EC90E071
:100F50009587848784EC90E09787868780EC90E083
:100F6000918B808B81EC90E0938B828B82EC90E074
:100F7000958B848B86EC90E0978B868B118E128EEE
:100F8000138E148E0895A1E21A2EAA1BBB1BFD011D
:100F90000DC0AA1FBB1FEE1FFF1FA217B307E40758
:100FA000F50720F0A21BB30BE40BF50B661F771FB0
:100FB000881F991F1A9469F7609570958095909590
:100FC0009B01AC01BD01CF010895EE0FFF1F0590FD
:0A0FD000F491E02D0994F894FFCF8E
:100FDA00000000008E02EE011B02DB024C022A0214
:100FEA003E020D0A003E3E3E205374617274205444
:100FFA0075726E4F6E4F6666416C6C4C65647328F1
:10100A0029003E3E3E2072656C6179436F6E7472B0
:10101A006F6C6C2829203A2072656C61793D002C2E
:10102A002076616C75653D003E3E3E2053746172C8
:10103A00742070726F63657373454E442829007378
:10104A006574757028292073746172746564003E32
:10105A003E3E2053746172742073657475704469DE
:10106A00676974616C50696E732829003E3E3E20A0
:10107A00537461727420666C617368416C6C4C6560
:10108A006473282900736574757028292066696E4F
:10109A0069736865640028494E495429204F4E20D7
:1010AA00707265737365640028544553542920533C
:1010BA00746172742070726F63657373544553540C
:1010CA00737461727428290028494E4954292050A2
:1010DA00524F472070726573736564003E3E3E202E
:1010EA0053746172742070726F6365737345494EED
:1010FA0028292C2064656C6179203D203234563AC7
:10110A00002C203334563A002850524F4729204D9C
:10111A00494E2070726573736564003E3E3E2053EB
:10112A00746172742070726F636573734D494E28CF
:10113A00292C2064656C6179203D203334563A00AD
:10114A002850524F47292050524F472070726573DA
:10115A0073656400284D494E29204D41582070720C
:10116A006573736564003E3E3E2053746172742059
:10117A0070726F636573734D415828292C2064651A
:10118A006C6179203D203334563A00284D494E2966
:10119A002050524F47207072657373656400284D62
:1011AA004158292050524F47207072657373656405
:1011BA0000285445535429204F4E2070726573738A
:1011CA00656400285445535429205374617274206D
:1011DA0070726F6365737354455354656E6428293E
:0211EA00000003
:00000001FF
